S0150000417262656964736B72617620352E737265634C
S11300000C947A000C9499000C9499000C94990027
S11300100C9499000C9499000C9499000C949900F8
S11300200C9499000C9499000C9499000C949900E8
S11300300C9499000C9499000C9499000C949900D8
S11300400C9499000C9499000C9499000C949900C8
S11300500C9499000C9499000C9499000C949900B8
S11300600C9499000C9499000C9499000C949900A8
S11300700C9499000C9499000C9499000C94990098
S11300800C9499000C9499000C9499000C94990088
S11300900C9499000C9499000C9499000C94990078
S11300A00C9499000C9499000C9499000C94990068
S11300B00C9499000C9499000C9499000C94990058
S11300C00C9499000C9499000C9499000C94990048
S11300D00C9499000C9499000C9499000C94990038
S11300E00C9499000C9499000C9499000C94990028
S11300F00C94990011241FBECFEFCDBFDFE7DEBF04
S113010010E4A0E0B0E4E0E1F2E000E00BBF02C0E4
S113011007900D92A431B107D9F720E4A4E1B0E42B
S113012001C01D92AA31B207E1F70E949B000C9412
S113013006010C9400000E94B7008FE097E201973B
S1130140F1F700C0000080E090E4809316409093A3
S113015017408EE090E40E94D6009FE728E381E0F8
S1130160915020408040E1F700C00000F2CFE0E26F
S1130170F4E080818D7F808380818160808383E847
S113018096E08093680890936908E0E6F8E0868139
S1130190806C868308959091640895FFFCCF8093CA
S11301A0620808950E94CB0080E008950F931F9386
S11301B0CF93DF93E0911640F0911740238121FF04
S11301C01BC08C01D0E0C0E0F80181918F016091E7
S11301D0164070911740DB011896ED91FC91199728
S11301E0882331F00995892B79F3DFEFCFEFECCF3A
S11301F08AE00995892B19F08FEF9FEF02C08D2FAC
S11302009C2FDF91CF911F910F910895F894FFCF08
S11302100000000200000000D2000000000074652D
S107022073740D00E2
S9030000FC
