:100000000C947A000C9499000C9499000C9499002B
:100010000C9499000C9499000C9499000C949900FC
:100020000C9499000C9499000C9499000C949900EC
:100030000C9499000C9499000C9499000C949900DC
:100040000C9499000C9499000C9499000C949900CC
:100050000C9499000C9499000C9499000C949900BC
:100060000C9499000C9499000C9499000C949900AC
:100070000C9499000C9499000C9499000C9499009C
:100080000C9499000C9499000C9499000C9499008C
:100090000C9499000C9499000C9499000C9499007C
:1000A0000C9499000C9499000C9499000C9499006C
:1000B0000C9499000C949B000C9499000C9499005A
:1000C0000C9499000C9499000C9499000C9499004C
:1000D0000C9499000C9499000C9499000C9499003C
:1000E0000C9499000C9499000C9499000C9499002C
:1000F0000C94990011241FBECFEFCDBFDFE7DEBF08
:1001000010E4A0E0B0E4E0E8F2E000E00BBF02C0E1
:1001100007900D92A432B107D9F720E4A4E2B0E42D
:1001200001C01D92AA32B207E1F70E94C8000C94E8
:100130003E010C9400001F920F920FB60F921124F3
:100140000BB60F922F933F934F935F936F937F93D1
:100150008F939F93AF93BF93EF93FF938EE090E4C1
:100160000E940E0184E080932904FF91EF91BF91DA
:10017000AF919F918F917F916F915F914F913F913F
:100180002F910F900BBE0F900FBE0F901F901895E0
:10019000E0E2F4E088E0808387EF84838BE0828B69
:1001A00078940E94EF008FE097E20197F1F700C08A
:1001B000000080E090E480932640909327409FEFDA
:1001C00024E38CE0915020408040E1F700C0000023
:1001D000E0E2F4E0948188E089278483F0CFE0E2D4
:1001E000F4E080818D7F808380818160808383E8DB
:1001F00096E08093680890936908E0E6F8E08681CD
:10020000806C868308959091640895FFFCCF80935D
:10021000620808950E94030180E008950F931F93E0
:10022000CF93DF93E0912640F0912740238121FF77
:100230001BC08C01D0E0C0E0F80181918F0160917A
:10024000264070912740DB011896ED91FC9119979B
:10025000882331F00995892B79F3DFEFCFEFECCFCD
:100260008AE00995892B19F08FEF9FEF02C08D2F3F
:100270009C2FDF91CF911F910F910895F894FFCF9C
:1002800000000002000000000A01000000004B6EA8
:10029000617070656E206572207472796B6B657425
:0402A000210D00002C
:00000001FF
