S01000004172624B726176312E737265633A
S11300000C947A000C9484000C9484000C94840066
S11300100C9484000C9484000C9484000C9484004C
S11300200C9484000C9484000C9484000C9484003C
S11300300C9484000C9484000C9484000C9484002C
S11300400C9484000C9484000C9484000C9484001C
S11300500C9484000C9484000C9484000C9484000C
S11300600C9484000C9484000C9484000C948400FC
S11300700C9484000C9484000C9484000C948400EC
S11300800C9484000C9484000C9484000C948400DC
S11300900C9484000C9484000C9484000C948400CC
S11300A00C9484000C9484000C9484000C948400BC
S11300B00C9484000C9484000C9484000C948400AC
S11300C00C9484000C9484000C9484000C9484009C
S11300D00C9484000C9484000C9484000C9484008C
S11300E00C9484000C9484000C9484000C9484007C
S11300F00C94840011241FBECFEFCDBFDFE7DEBF19
S11301000E9486000C94AC000C94000028E020931C
S1130110210427E02093810424E0209322042091E9
S1130120320428602093320421E030E083309105CA
S1130130ECF7A901082E01C0440F0A94EAF7409392
S113014084044FEF54E36CE0415050406040E1F7C9
S10F015000C000000196EACFF894FFCF35
S9030000FC
