:100000000C947A000C9499000C9499000C9499002B
:100010000C9499000C9499000C9499000C949900FC
:100020000C9499000C9499000C9499000C949900EC
:100030000C9499000C9499000C9499000C949900DC
:100040000C9499000C9499000C9499000C949900CC
:100050000C9499000C9499000C9499000C949900BC
:100060000C9499000C9499000C9499000C949900AC
:100070000C9499000C9499000C9499000C9499009C
:100080000C9499000C9499000C9499000C9499008C
:100090000C9499000C9499000C9499000C9499007C
:1000A0000C9499000C9499000C9499000C9499006C
:1000B0000C9499000C949B000C9499000C9499005A
:1000C0000C9499000C9499000C9499000C9499004C
:1000D0000C9499000C9499000C9499000C9499003C
:1000E0000C9499000C9499000C9499000C9499002C
:1000F0000C94990011241FBECFEFCDBFDFE7DEBF08
:1001000010E4A0E0B0E4EAE3F3E000E00BBF02C0DB
:1001100007900D92AE34B107D9F720E4AEE4B0E415
:1001200001C01D92A935B207E1F70E9400010C94AD
:100130009B010C9400001F920F920FB60F92112496
:100140000BB60F922F933F934F935F936F937F93D1
:100150008F939F93AF93BF93EF93FF938FE097E2BB
:100160000197F1F700C000009091004081E08927DD
:100170008093004080910040882329F08FE090E434
:100180000E946B0104C088E290E40E946B018FEF33
:1001900080932904FF91EF91BF91AF919F918F912F
:1001A0007F916F915F914F913F912F910F900BBE77
:1001B0000F900FBE0F901F90189581E08093E60579
:1001C000E0E0FAE0838381E1818380ED87A385E02D
:1001D00080830895E0E6F4E08689887F868B8689AF
:1001E0008460868B8689877F868BE0E0F6E081E0FD
:1001F000828385E08093B000808386E080870895C5
:10020000E0E2F4E08081886080838BE0828B7894E8
:100210000E944C010E94DD000E94EA008FE097E2FC
:100220000197F1F700C0000081E090E48093554011
:100230009093564083E490E40E946B0180910040CB
:100240008823A9F080914E408093290A87E893E1A2
:100250000197F1F700C00000809151409091524009
:10026000969587959695879580934E40E7CF809198
:100270004F408093280A87E893E10197F1F700C087
:100280000000809151409091524082519D4F809347
:100290004F4090935040D2CFE0E2F4E080818D7FD8
:1002A000808380818160808383E896E08093680802
:1002B00090936908E0E6F8E08681806C8683089573
:1002C0009091640895FFFCCF8093620808950E9486
:1002D000600180E008950F931F93CF93DF93E09127
:1002E0005540F0915640238121FF1BC08C01D0E086
:1002F000C0E0F80181918F016091554070915640A6
:10030000DB011896ED91FC911997882331F009953E
:10031000892B79F3DFEFCFEFECCF8AE00995892BBA
:1003200019F08FEF9FEF02C08D2F9C2FDF91CF919F
:0A0330001F910F910895F894FFCF7C
:10033A0001000000020000000067010000000053F5
:10034A00797374656D65742065722069204C454423
:10035A00206D6F6475730D0053797374656D6574E0
:10036A00206572206920736572766F206D6F6475DF
:0E037A00730D004865696865696865690D0066
:00000001FF
