S01700004763634170706C69636174696F6E312E737265635B
S11300000C947A000C9491000C9491000C9491003F
S11300100C9491000C9491000C9491000C94910018
S11300200C9491000C9491000C9491000C94910008
S11300300C9491000C9491000C9491000C949100F8
S11300400C9491000C9491000C9491000C949100E8
S11300500C9491000C9491000C9491000C949100D8
S11300600C9491000C9491000C9491000C949100C8
S11300700C9491000C9491000C9491000C949100B8
S11300800C9491000C9491000C9491000C949100A8
S11300900C9491000C9491000C9491000C94910098
S11300A00C9491000C9491000C9491000C94910088
S11300B00C9491000C9491000C9491000C94910078
S11300C00C9491000C9491000C9491000C94910068
S11300D00C9491000C9491000C9491000C94910058
S11300E00C9491000C9491000C9491000C94910048
S11300F00C94910011241FBECFEFCDBFDFE7DEBF0C
S113010010E4A0E0B0E4E2E3F2E000E00BBF02C0E0
S113011007900D92A837B107D9F70E94DF000C941D
S113012017010C940000E0E6F8E083E896E080878D
S113013091878681806C8683E0E2F4E081E08183AC
S113014082E0818308959091640895FFFCCF8093A9
S1130150620808950F931F93CF93DF938C01C0E03F
S1130160D0E007C0F801EC0FFD1F80810E94A300BE
S11301702196F80101900020E9F73197E01BF10B7B
S1130180CE17DF0778F3DF91CF911F910F91089578
S1130190809164088823E4F7809160080895E0E87A
S11301A0F4E081E0818382E081831582089581E017
S11301B08093850480E090E40E94AA000895CF9380
S11301C0DF93CDB7DEB72997CDBFDEBF8FE097E2CF
S11301D00197F1F700C000000E9493000E94CF0035
S11301E085E590E40E94AA0010E00E94C8008A30CD
S11301F081F08D3071F091E0910FE1E0F0E0EC0FCF
S1130200FD1FE10FF11D80839A3010F4192F01C0F6
S113021010E08D3051F7E1E0F0E0EC0FFD1FE10F4D
S1130220F11D1082CE0101960E94D700DDCFF89413
S1050230FFCFFA
S11302324F4B2C204C45442031204F4E2E0D0A00AA
S11302424F4B2C204C45442032204F4E2E0D0A0099
S11302524F4B2C204C45442031204F46462E0D0A4C
S1130262004F4B2C204C45442032204F46462E0D45
S11302720A00556E6B6E6F776E20636F6D6D616EE3
S1130282642E0D0A0054797065204F4E2F4F464656
S113029220746F20636F6E74726F6C2074686520B3
S10B02A24C45442E0D0A000036
S9030000FC
